:100000002500150B5308540832082E08380820081C
:100010004D08430855084B08B8021807120A140285
:1000200032000008130232000008640C1A0A0A0C9D
:100030001A0A320C2A00C60C2B00A6077000EB022D
:100040001D0A66077100EA021B0A00081A062E0A3A
:100050000000E90C0600E90C26003B0AED0C060046
:10006000E90C26003B0A1A06480A0000EB0C0600C1
:10007000F90C26003B0A12022B00020C2A00A607EC
:10008000700066077100EA023F0AEB023D0A0008B1
:10009000ED0C060012022B00FB0C4607F90C2600A3
:1000A0000000A607700066077100FB0C4607F90CFC
:1000B000260000000000EB024C0A0000FB0C460783
:1000C000F90C26000000FB0C4607F90C2600000086
:1000D0000008480C1A09040C28000D0283092C00A2
:1000E0006C02090C2900770A2C030307790A3309EB
:1000F0007B0A26090000E902740A26092609AD02D6
:10010000E8026D0A0008E201530843084508450863
:10011000530843084508450853084308450845085F
:100120007800190966069F0AFA0C2E0066069F0AD7
:100130001709EE02960A190966079B0A250B120C8D
:1001400027001909E702A10A7A00190C2E00140CE5
:100150002F004606AE0AEF02A90ABD0A140C2F00B2
:100160004607B50AEF02B00ABD0AEE02A70A1A0551
:10017000E90C2600ED0C0600C10AE90C2600E90C8A
:100180000600110510059D0C1A099D0C1A0916028E
:100190002E00030C2F006D0069091107170B1007C3
:1001A000D70AEF02CC0A0C09EE02C90AE70A1702C5
:1001B0002E0010056D00030C2F0069091107170BA5
:1001C000EF02DD0A0C091007D70AEE02DA0A6D0009
:1001D000030C2F0069091007F30A1107170BEF0230
:1001E000EA0A0C09E70AFF0C06006607170B060768
:1001F000F50AFF0C1A09FF0C1A096607170B060609
:10020000FD0A6607170B15022E00110578000C0970
:100210006D00030C2F0069091107170B0606F30A7E
:10022000EF020B0BEE02070BF30AC20C0200FF0CED
:100230000600280C3500DD0C32003300DD0C3400E4
:10024000120C3600030C3700900A6D00690966072E
:10025000360B69096607360B6909270C3B0015093F
:100260006607360BFB022F0B0C09250B19096607D5
:10027000360B6D00690966074A0B690966074A0B68
:100280006909280C3B00150966074A0BFB02430B62
:100290000C09360B190966074A0B6D0069096607D8
:1002A0005E0B690966075E0B6909290C3B0015099D
:1002B00066075E0BFB02570B0C094A0B1909660710
:1002C0005E0B6D0069096607720B69096607720BA0
:1002D00069092A0C3B0015096607720BFB026B0BC0
:1002E0000C095E0B19096607720B6D006909660738
:1002F000860B69096607860B69092B0C3B001509FB
:100300006607860BFB027F0B0C09720B1909660747
:10031000860B6D00690966079A0B690966079A0BD7
:1003200069092C0C3B00150966079A0BFB02930B1D
:100330000C09860B190966079A0B6D006909660797
:10034000AE0B69096607AE0B69092D0C3B00150958
:100350006607AE0BFB02A70B0C099A0B190966077F
:10036000AE0B6D0069096607C20B69096607C20B0F
:1003700069092E0C3B0015096607C20BFB02BB0B7B
:100380000C09AE0B19096607C20B6D0069096607F7
:10039000D60B69096607D60B69092F0C3B001509B6
:1003A0006607D60BFB02CF0B0C09C20B19096607B7
:1003B000D60B6D0069096607EA0B69096607EA0B47
:1003C0006909300C3B0015096607EA0BFB02E30BD9
:1003D0000C09D60B19096607EA0B6D006909660757
:1003E000FE0B69096607FE0B6909310C3B00150914
:0E03F0006607FE0BFB02F70B0C09EA0BFE0B77
:021FFE00EA0FE8
:00000001FF
