:02000000AB0A49
:100010004D086108790875086D08690830083408CA
:10002000030C3000FF0C2F000008320C2A00B60C25
:100030002B0086076F000000EB02190A66076E00AE
:10004000F702270AFA0C3700F802270A7900EA02B9
:10005000170A00081A07320A0000F90C0600F90C0A
:1000600026000008FD0C0600F90C26000008FF0C15
:100070000600FF0C260000081A07450A0000F90CCC
:100080000600F90C2600040C160AFD0C0600F90CFB
:100090002600040C160A1A07540A0000FB0C06007E
:1000A000F90C2600040C160AFD0C0600040C2A00AC
:1000B000790C2B00FB0C4607F90C260086076F0015
:1000C000EB025A0A66076E00FB0C4607F90C260085
:1000D000EA02580A00086D00040C28001E067D0A7A
:1000E0001009120C3C00040C1609F0027A0A0F06E3
:1000F000A50A1009FC02730A810A480C1609FF0CB4
:1001000030000D02A6092C006C02090C29008B0A94
:100110002C0303078D0A4B098F0A3C090000F002EB
:10012000940A0F06A50A1009E902880A3C09F002A0
:100130009C0A0F06A50A10093C09F002A20A0F0644
:10014000A50A1009AD02E802810A0008E20153087D
:10015000430845084108C20C0200640C1609FF0C54
:100160000600010C3100C80C1609FF0C37003800DE
:10017000390035000A0C3C00640C16093709660684
:10018000D00A640C16092A09FC02BC0A3709660762
:10019000C70AB102050C91000307D00A010C310017
:1001A000FF0C2E001E0C270015090E07B30AE702EC
:1001B000D40AFF0C3A00190C3B00140C3C00460614
:1001C000E40AFC02DF0AF30A140C3C004607EB0ABF
:1001D000FC02E60AF30AFB02DD0A7A00F90C2600AB
:1001E000FD0C0600F70AF90C2600F90C0600FF0CBE
:1001F0002E00070C270015090E07B30AE702FB0AB9
:1002000011023F00FF004306190BFF0043061D0BC0
:10021000FF004306130BFF0043060E0BFF0C060006
:100220006607B30A100BFF0C3E006B090E07B30AFA
:10023000150B1A07210B75003D0B1A063D0BB10279
:10024000000B220C3200260B180C32002A0966071C
:10025000B30A0606270BFF0C3E006B090E07B30A14
:100260000606240BF2022D0B2A097E006B092A09CF
:100270000E07B30A0606240B360BFF0C3E006B0973
:100280000E07B30A86073D0BFF0C34003600390019
:10029000640C3800FA0C37006607B30A06063D0BFB
:1002A0008607880B4C0B3709FF0C3300C80C3C0049
:1002B0000E0C16090E07B30A0606D40B8607640B4C
:1002C000FC02580B7300560B2A091407980B0D0CEF
:1002D0003D000A0C16090E07B30A0606D40B860663
:1002E000850BFD02690B74001306980B1606BD0BF7
:1002F000190C3D000A0C16090E07B30A0606D40BAA
:100300008606530BFD027A0BBD0B37097600580B9E
:100310002A094B0C3C000A0C16090E07B30A060604
:10032000D40B8606960BFC028B0B980B7400530BB8
:100330002A09060C2700190C3C000A0C16090E07A6
:10034000B30A0606D40B8606530BFC029D0BE7028C
:100350009B0B74002A090B0C2700190C3C000A0C9B
:1003600016090E07B30A0606D40B8606530BFC02C9
:10037000AF0BE702AD0B030CC00B040CC00B180C49
:10038000320074001507C60B1907980B0E07B30A45
:100390000606D40B8606CF0B6B09F202C60B440C83
:1003A0003800FA0C3700980B2A09FF0C1609FF0CCD
:0C03B00039006607B30A0606D90BBF0B24
:021FFE00E30FEF
:00000001FF
