:020000040000FA
:0800000083169F018312AB2857
:100010004D346134793475346D346934303434346A
:100020000330A900FF30A80000343230A300B630FE
:10003000A400051EA8010000A40B1928851DA70116
:10004000B00B2728FA30B000B10B2728B201A30B60
:1000500017280034331C32280000F9306500F930CD
:1000600085000034FD306500F93085000034FF3034
:100070006500FF3085000034331C45280000F9304E
:100080006500F930850004301628FD306500F93030
:10009000850004301628331C54280000FB3065000E
:1000A000F930850004301628FD3065000430A300C7
:1000B0007930A400FB30051DF9308500051EA8012C
:1000C000A40B5A28851DA701FB30051DF9308500BA
:1000D000A30B58280034A6010430A10037187D284E
:1000E00010201230B50004301620A90B7A282818E9
:1000F000A5281020B50B7328812848301620FF3022
:10010000A9002608A620A500A5090930A2008B2871
:10011000A50C031C8D284B208F283C200000A90B28
:1001200094282818A5281020A20B88283C20A90B69
:100130009C282818A52810203C20A90BA2282818A4
:10014000A5281020A60AA10B812800348207533469
:10015000433445344134C230620064301620FF30ED
:1001600065000130AA00C8301620FF30B000B10091
:10017000B200AE000A30B500643016203720851971
:10018000D028643016202A20B50BBC283720851DC6
:10019000C728AA0A05302A02031CD0280130AA0069
:1001A000FF30A7001E30A0001520271CB328A00B8D
:1001B000D428FF30B3001930B4001430B50005194D
:1001C000E428B50BDF28F3281430B500051DEB2813
:1001D000B50BE628F328B40BDD28B301F930850010
:1001E000FD306500F728F9308500F9306500FF30F3
:1001F000A7000730A0001520271CB328A00BFB2860
:100200002A08B800B80303191929B80303191D29CE
:10021000B80303191329B80303190E29FF30650029
:10022000851DB3281029FF30B7006B20271CB32889
:100230001529331C2129AE013D2933183D29AA0A6D
:1002400000292230AB0026291830AB002A20851D5A
:10025000B32805182729FF30B7006B20271CB328C7
:1002600005182429AB0B2D292A20B7016B202A2041
:10027000271CB328051824293629FF30B7006B2026
:10028000271CB328051E3D29FF30AD00AF00B2008A
:100290006430B100FA30B000851DB32805183D293F
:1002A000051E88294C293720FF30AC00C830B50026
:1002B0000E301620271CB3280518D429051E6429E2
:1002C000B50B5829AC0156292A202D1C98290D3030
:1002D000B6000A301620271CB3280518D429051AA1
:1002E0008529B60B6929AD012C1898292F18BD292D
:1002F0001930B6000A301620271CB3280518D42957
:10030000051A5329B60B7A29BD293720AF01582980
:100310002A204B30B5000A301620271CB3280518B8
:10032000D429051A9629B50B8B299829AD01532993
:100330002A200630A0001930B5000A301620271CEC
:10034000B3280518D429051A5329B50B9D29A00BEC
:100350009B29AD012A200B30A0001930B5000A30CE
:100360001620271CB3280518D429051A5329B50BC4
:10037000AF29A00BAD290330C0290430C0291830A3
:10038000AB00AD012E1CC629321C9829271CB328AE
:100390000518D429051ACF296B20AB0BC629443088
:1003A000B100FA30B00098292A20FF301620FF3023
:0C03B000B200851DB3280518D929BF290B
:02400E00D33F9E
:00000001FF
